{
    "contractName": "NFTMarketplace",
    "abi": [
        {
            "inputs": [],
            "stateMutability": "nonpayable",
            "type": "constructor"
        },
        {
            "inputs": [
                {
                    "internalType": "address",
                    "name": "sender",
                    "type": "address"
                },
                {
                    "internalType": "uint256",
                    "name": "tokenId",
                    "type": "uint256"
                },
                {
                    "internalType": "address",
                    "name": "owner",
                    "type": "address"
                }
            ],
            "name": "ERC721IncorrectOwner",
            "type": "error"
        },
        {
            "inputs": [
                {
                    "internalType": "address",
                    "name": "operator",
                    "type": "address"
                },
                {
                    "internalType": "uint256",
                    "name": "tokenId",
                    "type": "uint256"
                }
            ],
            "name": "ERC721InsufficientApproval",
            "type": "error"
        },
        {
            "inputs": [
                {
                    "internalType": "address",
                    "name": "approver",
                    "type": "address"
                }
            ],
            "name": "ERC721InvalidApprover",
            "type": "error"
        },
        {
            "inputs": [
                {
                    "internalType": "address",
                    "name": "operator",
                    "type": "address"
                }
            ],
            "name": "ERC721InvalidOperator",
            "type": "error"
        },
        {
            "inputs": [
                {
                    "internalType": "address",
                    "name": "owner",
                    "type": "address"
                }
            ],
            "name": "ERC721InvalidOwner",
            "type": "error"
        },
        {
            "inputs": [
                {
                    "internalType": "address",
                    "name": "receiver",
                    "type": "address"
                }
            ],
            "name": "ERC721InvalidReceiver",
            "type": "error"
        },
        {
            "inputs": [
                {
                    "internalType": "address",
                    "name": "sender",
                    "type": "address"
                }
            ],
            "name": "ERC721InvalidSender",
            "type": "error"
        },
        {
            "inputs": [
                {
                    "internalType": "uint256",
                    "name": "tokenId",
                    "type": "uint256"
                }
            ],
            "name": "ERC721NonexistentToken",
            "type": "error"
        },
        {
            "inputs": [
                {
                    "internalType": "address",
                    "name": "owner",
                    "type": "address"
                }
            ],
            "name": "OwnableInvalidOwner",
            "type": "error"
        },
        {
            "inputs": [
                {
                    "internalType": "address",
                    "name": "account",
                    "type": "address"
                }
            ],
            "name": "OwnableUnauthorizedAccount",
            "type": "error"
        },
        {
            "anonymous": false,
            "inputs": [
                {
                    "indexed": true,
                    "internalType": "address",
                    "name": "owner",
                    "type": "address"
                },
                {
                    "indexed": true,
                    "internalType": "address",
                    "name": "approved",
                    "type": "address"
                },
                {
                    "indexed": true,
                    "internalType": "uint256",
                    "name": "tokenId",
                    "type": "uint256"
                }
            ],
            "name": "Approval",
            "type": "event"
        },
        {
            "anonymous": false,
            "inputs": [
                {
                    "indexed": true,
                    "internalType": "address",
                    "name": "owner",
                    "type": "address"
                },
                {
                    "indexed": true,
                    "internalType": "address",
                    "name": "operator",
                    "type": "address"
                },
                {
                    "indexed": false,
                    "internalType": "bool",
                    "name": "approved",
                    "type": "bool"
                }
            ],
            "name": "ApprovalForAll",
            "type": "event"
        },
        {
            "anonymous": false,
            "inputs": [
                {
                    "indexed": false,
                    "internalType": "uint256",
                    "name": "_fromTokenId",
                    "type": "uint256"
                },
                {
                    "indexed": false,
                    "internalType": "uint256",
                    "name": "_toTokenId",
                    "type": "uint256"
                }
            ],
            "name": "BatchMetadataUpdate",
            "type": "event"
        },
        {
            "anonymous": false,
            "inputs": [
                {
                    "indexed": false,
                    "internalType": "uint256",
                    "name": "_tokenId",
                    "type": "uint256"
                }
            ],
            "name": "MetadataUpdate",
            "type": "event"
        },
        {
            "anonymous": false,
            "inputs": [
                {
                    "indexed": true,
                    "internalType": "address",
                    "name": "previousOwner",
                    "type": "address"
                },
                {
                    "indexed": true,
                    "internalType": "address",
                    "name": "newOwner",
                    "type": "address"
                }
            ],
            "name": "OwnershipTransferred",
            "type": "event"
        },
        {
            "anonymous": false,
            "inputs": [
                {
                    "indexed": true,
                    "internalType": "address",
                    "name": "from",
                    "type": "address"
                },
                {
                    "indexed": true,
                    "internalType": "address",
                    "name": "to",
                    "type": "address"
                },
                {
                    "indexed": true,
                    "internalType": "uint256",
                    "name": "tokenId",
                    "type": "uint256"
                }
            ],
            "name": "Transfer",
            "type": "event"
        },
        {
            "inputs": [
                {
                    "internalType": "address",
                    "name": "to",
                    "type": "address"
                },
                {
                    "internalType": "uint256",
                    "name": "tokenId",
                    "type": "uint256"
                }
            ],
            "name": "approve",
            "outputs": [],
            "stateMutability": "nonpayable",
            "type": "function"
        },
        {
            "inputs": [
                {
                    "internalType": "address",
                    "name": "owner",
                    "type": "address"
                }
            ],
            "name": "balanceOf",
            "outputs": [
                {
                    "internalType": "uint256",
                    "name": "",
                    "type": "uint256"
                }
            ],
            "stateMutability": "view",
            "type": "function"
        },
        {
            "inputs": [
                {
                    "internalType": "uint256",
                    "name": "tokenId",
                    "type": "uint256"
                }
            ],
            "name": "buyNFT",
            "outputs": [],
            "stateMutability": "payable",
            "type": "function"
        },
        {
            "inputs": [
                {
                    "internalType": "string",
                    "name": "tokenURI",
                    "type": "string"
                }
            ],
            "name": "createNFT",
            "outputs": [
                {
                    "internalType": "uint256",
                    "name": "",
                    "type": "uint256"
                }
            ],
            "stateMutability": "nonpayable",
            "type": "function"
        },
        {
            "inputs": [
                {
                    "internalType": "uint256",
                    "name": "tokenId",
                    "type": "uint256"
                }
            ],
            "name": "getApproved",
            "outputs": [
                {
                    "internalType": "address",
                    "name": "",
                    "type": "address"
                }
            ],
            "stateMutability": "view",
            "type": "function"
        },
        {
            "inputs": [
                {
                    "internalType": "address",
                    "name": "owner",
                    "type": "address"
                },
                {
                    "internalType": "address",
                    "name": "operator",
                    "type": "address"
                }
            ],
            "name": "isApprovedForAll",
            "outputs": [
                {
                    "internalType": "bool",
                    "name": "",
                    "type": "bool"
                }
            ],
            "stateMutability": "view",
            "type": "function"
        },
        {
            "inputs": [
                {
                    "internalType": "uint256",
                    "name": "tokenId",
                    "type": "uint256"
                },
                {
                    "internalType": "uint256",
                    "name": "price",
                    "type": "uint256"
                }
            ],
            "name": "listNFT",
            "outputs": [],
            "stateMutability": "nonpayable",
            "type": "function"
        },
        {
            "inputs": [],
            "name": "name",
            "outputs": [
                {
                    "internalType": "string",
                    "name": "",
                    "type": "string"
                }
            ],
            "stateMutability": "view",
            "type": "function"
        },
        {
            "inputs": [],
            "name": "owner",
            "outputs": [
                {
                    "internalType": "address",
                    "name": "",
                    "type": "address"
                }
            ],
            "stateMutability": "view",
            "type": "function"
        },
        {
            "inputs": [
                {
                    "internalType": "uint256",
                    "name": "tokenId",
                    "type": "uint256"
                }
            ],
            "name": "ownerOf",
            "outputs": [
                {
                    "internalType": "address",
                    "name": "",
                    "type": "address"
                }
            ],
            "stateMutability": "view",
            "type": "function"
        },
        {
            "inputs": [],
            "name": "renounceOwnership",
            "outputs": [],
            "stateMutability": "nonpayable",
            "type": "function"
        },
        {
            "inputs": [
                {
                    "internalType": "address",
                    "name": "from",
                    "type": "address"
                },
                {
                    "internalType": "address",
                    "name": "to",
                    "type": "address"
                },
                {
                    "internalType": "uint256",
                    "name": "tokenId",
                    "type": "uint256"
                }
            ],
            "name": "safeTransferFrom",
            "outputs": [],
            "stateMutability": "nonpayable",
            "type": "function"
        },
        {
            "inputs": [
                {
                    "internalType": "address",
                    "name": "from",
                    "type": "address"
                },
                {
                    "internalType": "address",
                    "name": "to",
                    "type": "address"
                },
                {
                    "internalType": "uint256",
                    "name": "tokenId",
                    "type": "uint256"
                },
                {
                    "internalType": "bytes",
                    "name": "data",
                    "type": "bytes"
                }
            ],
            "name": "safeTransferFrom",
            "outputs": [],
            "stateMutability": "nonpayable",
            "type": "function"
        },
        {
            "inputs": [
                {
                    "internalType": "address",
                    "name": "operator",
                    "type": "address"
                },
                {
                    "internalType": "bool",
                    "name": "approved",
                    "type": "bool"
                }
            ],
            "name": "setApprovalForAll",
            "outputs": [],
            "stateMutability": "nonpayable",
            "type": "function"
        },
        {
            "inputs": [
                {
                    "internalType": "bytes4",
                    "name": "interfaceId",
                    "type": "bytes4"
                }
            ],
            "name": "supportsInterface",
            "outputs": [
                {
                    "internalType": "bool",
                    "name": "",
                    "type": "bool"
                }
            ],
            "stateMutability": "view",
            "type": "function"
        },
        {
            "inputs": [],
            "name": "symbol",
            "outputs": [
                {
                    "internalType": "string",
                    "name": "",
                    "type": "string"
                }
            ],
            "stateMutability": "view",
            "type": "function"
        },
        {
            "inputs": [],
            "name": "tokenCounter",
            "outputs": [
                {
                    "internalType": "uint256",
                    "name": "",
                    "type": "uint256"
                }
            ],
            "stateMutability": "view",
            "type": "function"
        },
        {
            "inputs": [
                {
                    "internalType": "uint256",
                    "name": "",
                    "type": "uint256"
                }
            ],
            "name": "tokenPrices",
            "outputs": [
                {
                    "internalType": "uint256",
                    "name": "",
                    "type": "uint256"
                }
            ],
            "stateMutability": "view",
            "type": "function"
        },
        {
            "inputs": [
                {
                    "internalType": "uint256",
                    "name": "tokenId",
                    "type": "uint256"
                }
            ],
            "name": "tokenURI",
            "outputs": [
                {
                    "internalType": "string",
                    "name": "",
                    "type": "string"
                }
            ],
            "stateMutability": "view",
            "type": "function"
        },
        {
            "inputs": [
                {
                    "internalType": "uint256",
                    "name": "",
                    "type": "uint256"
                }
            ],
            "name": "tokensForSale",
            "outputs": [
                {
                    "internalType": "bool",
                    "name": "",
                    "type": "bool"
                }
            ],
            "stateMutability": "view",
            "type": "function"
        },
        {
            "inputs": [
                {
                    "internalType": "address",
                    "name": "from",
                    "type": "address"
                },
                {
                    "internalType": "address",
                    "name": "to",
                    "type": "address"
                },
                {
                    "internalType": "uint256",
                    "name": "tokenId",
                    "type": "uint256"
                }
            ],
            "name": "transferFrom",
            "outputs": [],
            "stateMutability": "nonpayable",
            "type": "function"
        },
        {
            "inputs": [
                {
                    "internalType": "address",
                    "name": "newOwner",
                    "type": "address"
                }
            ],
            "name": "transferOwnership",
            "outputs": [],
            "stateMutability": "nonpayable",
            "type": "function"
        }
    ],
    "bytecode": "608060405234801562000010575f80fd5b50336040518060400160405280600e81526020016d4e46544d61726b6574706c61636560901b815250604051806040016040528060048152602001634e46544d60e01b815250815f9081620000669190620001ad565b506001620000758282620001ad565b5050506001600160a01b038116620000a657604051631e4fbdf760e01b81525f600482015260240160405180910390fd5b620000b181620000bc565b505f60085562000275565b600780546001600160a01b038381166001600160a01b0319831681179093556040519116919082907f8be0079c531659141344cd1fd0a4f28419497f9722a3daafe3b4186f6b6457e0905f90a35050565b634e487b7160e01b5f52604160045260245ffd5b600181811c908216806200013657607f821691505b6020821081036200015557634e487b7160e01b5f52602260045260245ffd5b50919050565b601f821115620001a8575f81815260208120601f850160051c81016020861015620001835750805b601f850160051c820191505b81811015620001a4578281556001016200018f565b5050505b505050565b81516001600160401b03811115620001c957620001c96200010d565b620001e181620001da845462000121565b846200015b565b602080601f83116001811462000217575f8415620001ff5750858301515b5f19600386901b1c1916600185901b178555620001a4565b5f85815260208120601f198616915b82811015620002475788860151825594840194600190910190840162000226565b50858210156200026557878501515f19600388901b60f8161c191681555b5050505050600190811b01905550565b61180080620002835f395ff3fe608060405260043610610131575f3560e01c80638da5cb5b116100a8578063c87b56dd1161006d578063c87b56dd1461034f578063d082e3811461036e578063da2ed03e14610383578063e5afe3e6146103a2578063e985e9c5146103cd578063f2fde38b146103ec575f80fd5b80638da5cb5b146102c157806394383f14146102de57806395d89b41146102fd578063a22cb46514610311578063b88d4fde14610330575f80fd5b806342842e0e116100f957806342842e0e1461020157806351ed8288146102205780636352211e1461023357806370a0823114610252578063715018a61461027f57806387b3746814610293575f80fd5b806301ffc9a71461013557806306fdde0314610169578063081812fc1461018a578063095ea7b3146101c157806323b872dd146101e2575b5f80fd5b348015610140575f80fd5b5061015461014f3660046112ed565b61040b565b60405190151581526020015b60405180910390f35b348015610174575f80fd5b5061017d610435565b6040516101609190611355565b348015610195575f80fd5b506101a96101a4366004611367565b6104c4565b6040516001600160a01b039091168152602001610160565b3480156101cc575f80fd5b506101e06101db366004611399565b6104eb565b005b3480156101ed575f80fd5b506101e06101fc3660046113c1565b6104fa565b34801561020c575f80fd5b506101e061021b3660046113c1565b610588565b6101e061022e366004611367565b6105a7565b34801561023e575f80fd5b506101a961024d366004611367565b6106d1565b34801561025d575f80fd5b5061027161026c3660046113fa565b6106db565b604051908152602001610160565b34801561028a575f80fd5b506101e0610720565b34801561029e575f80fd5b506101546102ad366004611367565b600a6020525f908152604090205460ff1681565b3480156102cc575f80fd5b506007546001600160a01b03166101a9565b3480156102e9575f80fd5b506101e06102f8366004611413565b610733565b348015610308575f80fd5b5061017d610809565b34801561031c575f80fd5b506101e061032b366004611433565b610818565b34801561033b575f80fd5b506101e061034a3660046114f3565b610823565b34801561035a575f80fd5b5061017d610369366004611367565b61083a565b348015610379575f80fd5b5061027160085481565b34801561038e575f80fd5b5061027161039d36600461156a565b610945565b3480156103ad575f80fd5b506102716103bc366004611367565b60096020525f908152604090205481565b3480156103d8575f80fd5b506101546103e73660046115af565b610979565b3480156103f7575f80fd5b506101e06104063660046113fa565b6109a6565b5f6001600160e01b03198216632483248360e11b148061042f575061042f826109e3565b92915050565b60605f8054610443906115e0565b80601f016020809104026020016040519081016040528092919081815260200182805461046f906115e0565b80156104ba5780601f10610491576101008083540402835291602001916104ba565b820191905f5260205f20905b81548152906001019060200180831161049d57829003601f168201915b5050505050905090565b5f6104ce82610a32565b505f828152600460205260409020546001600160a01b031661042f565b6104f6828233610a6a565b5050565b6001600160a01b03821661052857604051633250574960e11b81525f60048201526024015b60405180910390fd5b5f610534838333610a77565b9050836001600160a01b0316816001600160a01b031614610582576040516364283d7b60e01b81526001600160a01b038086166004830152602482018490528216604482015260640161051f565b50505050565b6105a283838360405180602001604052805f815250610823565b505050565b5f818152600a602052604090205460ff166106045760405162461bcd60e51b815260206004820152601960248201527f54686973204e4654206973206e6f7420666f722073616c652e00000000000000604482015260640161051f565b5f8181526009602052604090205434101561066f5760405162461bcd60e51b815260206004820152602560248201527f4e6f7420656e6f75676820657468657220746f207075726368617365207468696044820152641cc813919560da1b606482015260840161051f565b5f610679826106d1565b9050610686813384610b69565b6040516001600160a01b038216903480156108fc02915f818181858888f193505050501580156106b8573d5f803e3d5ffd5b50505f908152600a60205260409020805460ff19169055565b5f61042f82610a32565b5f6001600160a01b038216610705576040516322718ad960e21b81525f600482015260240161051f565b506001600160a01b03165f9081526003602052604090205490565b610728610c16565b6107315f610c43565b565b3361073d836106d1565b6001600160a01b0316146107935760405162461bcd60e51b815260206004820152601e60248201527f596f7520617265206e6f74206f776e6572206f662074686973204e46542e0000604482015260640161051f565b5f81116107e25760405162461bcd60e51b815260206004820152601f60248201527f5072696365206d7573742062652067726561746572207468616e207a65726f00604482015260640161051f565b5f91825260096020908152604080842092909255600a90529020805460ff19166001179055565b606060018054610443906115e0565b6104f6338383610c94565b61082e8484846104fa565b61058284848484610d32565b606061084582610a32565b505f828152600660205260408120805461085e906115e0565b80601f016020809104026020016040519081016040528092919081815260200182805461088a906115e0565b80156108d55780601f106108ac576101008083540402835291602001916108d5565b820191905f5260205f20905b8154815290600101906020018083116108b857829003601f168201915b505050505090505f6108f160408051602081019091525f815290565b905080515f03610902575092915050565b81511561093457808260405160200161091c929190611618565b60405160208183030381529060405292505050919050565b61093d84610e58565b949350505050565b6008545f906109543382610ec9565b61095e8184610ee2565b60088054905f61096d83611646565b90915550909392505050565b6001600160a01b039182165f90815260056020908152604080832093909416825291909152205460ff1690565b6109ae610c16565b6001600160a01b0381166109d757604051631e4fbdf760e01b81525f600482015260240161051f565b6109e081610c43565b50565b5f6001600160e01b031982166380ac58cd60e01b1480610a1357506001600160e01b03198216635b5e139f60e01b145b8061042f57506301ffc9a760e01b6001600160e01b031983161461042f565b5f818152600260205260408120546001600160a01b03168061042f57604051637e27328960e01b81526004810184905260240161051f565b6105a28383836001610f31565b5f828152600260205260408120546001600160a01b0390811690831615610aa357610aa3818486611035565b6001600160a01b03811615610add57610abe5f855f80610f31565b6001600160a01b0381165f90815260036020526040902080545f190190555b6001600160a01b03851615610b0b576001600160a01b0385165f908152600360205260409020805460010190555b5f8481526002602052604080822080546001600160a01b0319166001600160a01b0389811691821790925591518793918516917fddf252ad1be2c89b69c2b068fc378daa952ba7f163c4a11628f55a4df523b3ef91a4949350505050565b6001600160a01b038216610b9257604051633250574960e11b81525f600482015260240161051f565b5f610b9e83835f610a77565b90506001600160a01b038116610bca57604051637e27328960e01b81526004810183905260240161051f565b836001600160a01b0316816001600160a01b031614610582576040516364283d7b60e01b81526001600160a01b038086166004830152602482018490528216604482015260640161051f565b6007546001600160a01b031633146107315760405163118cdaa760e01b815233600482015260240161051f565b600780546001600160a01b038381166001600160a01b0319831681179093556040519116919082907f8be0079c531659141344cd1fd0a4f28419497f9722a3daafe3b4186f6b6457e0905f90a35050565b6001600160a01b038216610cc657604051630b61174360e31b81526001600160a01b038316600482015260240161051f565b6001600160a01b038381165f81815260056020908152604080832094871680845294825291829020805460ff191686151590811790915591519182527f17307eab39ab6107e8899845ad3d59bd9653f200f220920489ca2b5937696c31910160405180910390a3505050565b6001600160a01b0383163b1561058257604051630a85bd0160e11b81526001600160a01b0384169063150b7a0290610d7490339088908790879060040161166a565b6020604051808303815f875af1925050508015610dae575060408051601f3d908101601f19168201909252610dab918101906116a6565b60015b610e15573d808015610ddb576040519150601f19603f3d011682016040523d82523d5f602084013e610de0565b606091505b5080515f03610e0d57604051633250574960e11b81526001600160a01b038516600482015260240161051f565b805181602001fd5b6001600160e01b03198116630a85bd0160e11b14610e5157604051633250574960e11b81526001600160a01b038516600482015260240161051f565b5050505050565b6060610e6382610a32565b505f610e7960408051602081019091525f815290565b90505f815111610e975760405180602001604052805f815250610ec2565b80610ea184611099565b604051602001610eb2929190611618565b6040516020818303038152906040525b9392505050565b6104f6828260405180602001604052805f815250611129565b5f828152600660205260409020610ef9828261170e565b506040518281527ff8e1a15aba9398e019f0b49df1a4fde98ee17ae345cb5f6b5e2c27f5033e8ce79060200160405180910390a15050565b8080610f4557506001600160a01b03821615155b15611006575f610f5484610a32565b90506001600160a01b03831615801590610f805750826001600160a01b0316816001600160a01b031614155b8015610f935750610f918184610979565b155b15610fbc5760405163a9fbf51f60e01b81526001600160a01b038416600482015260240161051f565b81156110045783856001600160a01b0316826001600160a01b03167f8c5be1e5ebec7d5bd14f71427d1e84f3dd0314c0f7b2291e5b200ac8c7c3b92560405160405180910390a45b505b50505f90815260046020526040902080546001600160a01b0319166001600160a01b0392909216919091179055565b61104083838361113f565b6105a2576001600160a01b03831661106e57604051637e27328960e01b81526004810182905260240161051f565b60405163177e802f60e01b81526001600160a01b03831660048201526024810182905260440161051f565b60605f6110a5836111a0565b60010190505f8167ffffffffffffffff8111156110c4576110c461146c565b6040519080825280601f01601f1916602001820160405280156110ee576020820181803683370190505b5090508181016020015b5f19016f181899199a1a9b1b9c1cb0b131b232b360811b600a86061a8153600a85049450846110f857509392505050565b6111338383611277565b6105a25f848484610d32565b5f6001600160a01b0383161580159061093d5750826001600160a01b0316846001600160a01b0316148061117857506111788484610979565b8061093d5750505f908152600460205260409020546001600160a01b03908116911614919050565b5f8072184f03e93ff9f4daa797ed6e38ed64bf6a1f0160401b83106111de5772184f03e93ff9f4daa797ed6e38ed64bf6a1f0160401b830492506040015b6d04ee2d6d415b85acef8100000000831061120a576d04ee2d6d415b85acef8100000000830492506020015b662386f26fc10000831061122857662386f26fc10000830492506010015b6305f5e1008310611240576305f5e100830492506008015b612710831061125457612710830492506004015b60648310611266576064830492506002015b600a831061042f5760010192915050565b6001600160a01b0382166112a057604051633250574960e11b81525f600482015260240161051f565b5f6112ac83835f610a77565b90506001600160a01b038116156105a2576040516339e3563760e11b81525f600482015260240161051f565b6001600160e01b0319811681146109e0575f80fd5b5f602082840312156112fd575f80fd5b8135610ec2816112d8565b5f5b8381101561132257818101518382015260200161130a565b50505f910152565b5f8151808452611341816020860160208601611308565b601f01601f19169290920160200192915050565b602081525f610ec2602083018461132a565b5f60208284031215611377575f80fd5b5035919050565b80356001600160a01b0381168114611394575f80fd5b919050565b5f80604083850312156113aa575f80fd5b6113b38361137e565b946020939093013593505050565b5f805f606084860312156113d3575f80fd5b6113dc8461137e565b92506113ea6020850161137e565b9150604084013590509250925092565b5f6020828403121561140a575f80fd5b610ec28261137e565b5f8060408385031215611424575f80fd5b50508035926020909101359150565b5f8060408385031215611444575f80fd5b61144d8361137e565b915060208301358015158114611461575f80fd5b809150509250929050565b634e487b7160e01b5f52604160045260245ffd5b5f67ffffffffffffffff8084111561149a5761149a61146c565b604051601f8501601f19908116603f011681019082821181831017156114c2576114c261146c565b816040528093508581528686860111156114da575f80fd5b858560208301375f602087830101525050509392505050565b5f805f8060808587031215611506575f80fd5b61150f8561137e565b935061151d6020860161137e565b925060408501359150606085013567ffffffffffffffff81111561153f575f80fd5b8501601f8101871361154f575f80fd5b61155e87823560208401611480565b91505092959194509250565b5f6020828403121561157a575f80fd5b813567ffffffffffffffff811115611590575f80fd5b8201601f810184136115a0575f80fd5b61093d84823560208401611480565b5f80604083850312156115c0575f80fd5b6115c98361137e565b91506115d76020840161137e565b90509250929050565b600181811c908216806115f457607f821691505b60208210810361161257634e487b7160e01b5f52602260045260245ffd5b50919050565b5f8351611629818460208801611308565b83519083019061163d818360208801611308565b01949350505050565b5f6001820161166357634e487b7160e01b5f52601160045260245ffd5b5060010190565b6001600160a01b03858116825284166020820152604081018390526080606082018190525f9061169c9083018461132a565b9695505050505050565b5f602082840312156116b6575f80fd5b8151610ec2816112d8565b601f8211156105a2575f81815260208120601f850160051c810160208610156116e75750805b601f850160051c820191505b81811015611706578281556001016116f3565b505050505050565b815167ffffffffffffffff8111156117285761172861146c565b61173c8161173684546115e0565b846116c1565b602080601f83116001811461176f575f84156117585750858301515b5f19600386901b1c1916600185901b178555611706565b5f85815260208120601f198616915b8281101561179d5788860151825594840194600190910190840161177e565b50858210156117ba57878501515f19600388901b60f8161c191681555b5050505050600190811b0190555056fea2646970667358221220c19ea2d4dfb8e5e1fdcfe251b666354b2894801f676fc36214712847b25a4bba64736f6c63430008140033",
    "sourcePath": "c:/Users/mertt/OneDrive/Masast/Projects/NFT Marketplace/src/contracts/NFTMarketplace.sol",
    "compiler": {
        "name": "solc",
        "version": "0.8.20+commit.a1b79de6"
    },
    "functionHashes": {
        "approve(address,uint256)": "095ea7b3",
        "balanceOf(address)": "70a08231",
        "buyNFT(uint256)": "51ed8288",
        "createNFT(string)": "da2ed03e",
        "getApproved(uint256)": "081812fc",
        "isApprovedForAll(address,address)": "e985e9c5",
        "listNFT(uint256,uint256)": "94383f14",
        "name()": "06fdde03",
        "owner()": "8da5cb5b",
        "ownerOf(uint256)": "6352211e",
        "renounceOwnership()": "715018a6",
        "safeTransferFrom(address,address,uint256)": "42842e0e",
        "safeTransferFrom(address,address,uint256,bytes)": "b88d4fde",
        "setApprovalForAll(address,bool)": "a22cb465",
        "supportsInterface(bytes4)": "01ffc9a7",
        "symbol()": "95d89b41",
        "tokenCounter()": "d082e381",
        "tokenPrices(uint256)": "e5afe3e6",
        "tokenURI(uint256)": "c87b56dd",
        "tokensForSale(uint256)": "87b37468",
        "transferFrom(address,address,uint256)": "23b872dd",
        "transferOwnership(address)": "f2fde38b"
    },
    "gasEstimates": {
        "creation": {
            "codeDepositCost": "1228800",
            "executionCost": "infinite",
            "totalCost": "infinite"
        },
        "external": {
            "approve(address,uint256)": "31531",
            "balanceOf(address)": "2674",
            "buyNFT(uint256)": "infinite",
            "createNFT(string)": "infinite",
            "getApproved(uint256)": "infinite",
            "isApprovedForAll(address,address)": "infinite",
            "listNFT(uint256,uint256)": "infinite",
            "name()": "infinite",
            "owner()": "2353",
            "ownerOf(uint256)": "infinite",
            "renounceOwnership()": "infinite",
            "safeTransferFrom(address,address,uint256)": "infinite",
            "safeTransferFrom(address,address,uint256,bytes)": "infinite",
            "setApprovalForAll(address,bool)": "26745",
            "supportsInterface(bytes4)": "infinite",
            "symbol()": "infinite",
            "tokenCounter()": "2338",
            "tokenPrices(uint256)": "2523",
            "tokenURI(uint256)": "infinite",
            "tokensForSale(uint256)": "2569",
            "transferFrom(address,address,uint256)": "infinite",
            "transferOwnership(address)": "28465"
        }
    }
}